{
  "contractName": "Ebank",
  "abi": [
    {
      "inputs": [],
      "payable": false,
      "stateMutability": "nonpayable",
      "type": "constructor"
    },
    {
      "anonymous": false,
      "inputs": [
        {
          "indexed": false,
          "internalType": "uint256",
          "name": "oldSupply",
          "type": "uint256"
        },
        {
          "indexed": false,
          "internalType": "uint256",
          "name": "newSupply",
          "type": "uint256"
        }
      ],
      "name": "AddSupply",
      "type": "event"
    },
    {
      "anonymous": false,
      "inputs": [
        {
          "indexed": true,
          "internalType": "address",
          "name": "tokenOwner",
          "type": "address"
        },
        {
          "indexed": true,
          "internalType": "address",
          "name": "spender",
          "type": "address"
        },
        {
          "indexed": false,
          "internalType": "uint256",
          "name": "tokens",
          "type": "uint256"
        }
      ],
      "name": "Approval",
      "type": "event"
    },
    {
      "anonymous": false,
      "inputs": [
        {
          "indexed": true,
          "internalType": "address",
          "name": "previousOwner",
          "type": "address"
        },
        {
          "indexed": true,
          "internalType": "address",
          "name": "newOwner",
          "type": "address"
        }
      ],
      "name": "OwnershipTransferred",
      "type": "event"
    },
    {
      "anonymous": false,
      "inputs": [
        {
          "indexed": true,
          "internalType": "address",
          "name": "from",
          "type": "address"
        },
        {
          "indexed": true,
          "internalType": "address",
          "name": "to",
          "type": "address"
        },
        {
          "indexed": false,
          "internalType": "uint256",
          "name": "tokens",
          "type": "uint256"
        }
      ],
      "name": "Transfer",
      "type": "event"
    },
    {
      "payable": true,
      "stateMutability": "payable",
      "type": "fallback"
    },
    {
      "constant": true,
      "inputs": [],
      "name": "_decimals18",
      "outputs": [
        {
          "internalType": "uint256",
          "name": "",
          "type": "uint256"
        }
      ],
      "payable": false,
      "stateMutability": "view",
      "type": "function"
    },
    {
      "constant": true,
      "inputs": [],
      "name": "_totalSupply",
      "outputs": [
        {
          "internalType": "uint256",
          "name": "",
          "type": "uint256"
        }
      ],
      "payable": false,
      "stateMutability": "view",
      "type": "function"
    },
    {
      "constant": true,
      "inputs": [],
      "name": "decimals",
      "outputs": [
        {
          "internalType": "uint8",
          "name": "",
          "type": "uint8"
        }
      ],
      "payable": false,
      "stateMutability": "view",
      "type": "function"
    },
    {
      "constant": true,
      "inputs": [],
      "name": "name",
      "outputs": [
        {
          "internalType": "string",
          "name": "",
          "type": "string"
        }
      ],
      "payable": false,
      "stateMutability": "view",
      "type": "function"
    },
    {
      "constant": true,
      "inputs": [],
      "name": "owner",
      "outputs": [
        {
          "internalType": "address payable",
          "name": "",
          "type": "address"
        }
      ],
      "payable": false,
      "stateMutability": "view",
      "type": "function"
    },
    {
      "constant": true,
      "inputs": [],
      "name": "symbol",
      "outputs": [
        {
          "internalType": "string",
          "name": "",
          "type": "string"
        }
      ],
      "payable": false,
      "stateMutability": "view",
      "type": "function"
    },
    {
      "constant": true,
      "inputs": [],
      "name": "totalSupply",
      "outputs": [
        {
          "internalType": "uint256",
          "name": "",
          "type": "uint256"
        }
      ],
      "payable": false,
      "stateMutability": "view",
      "type": "function"
    },
    {
      "constant": true,
      "inputs": [
        {
          "internalType": "address",
          "name": "tokenOwner",
          "type": "address"
        }
      ],
      "name": "balanceOf",
      "outputs": [
        {
          "internalType": "uint256",
          "name": "balance",
          "type": "uint256"
        }
      ],
      "payable": false,
      "stateMutability": "view",
      "type": "function"
    },
    {
      "constant": true,
      "inputs": [
        {
          "internalType": "address",
          "name": "tokenOwner",
          "type": "address"
        },
        {
          "internalType": "address",
          "name": "spender",
          "type": "address"
        }
      ],
      "name": "allowance",
      "outputs": [
        {
          "internalType": "uint256",
          "name": "remaining",
          "type": "uint256"
        }
      ],
      "payable": false,
      "stateMutability": "view",
      "type": "function"
    },
    {
      "constant": false,
      "inputs": [
        {
          "internalType": "address",
          "name": "_add",
          "type": "address"
        },
        {
          "internalType": "uint256",
          "name": "_tokens",
          "type": "uint256"
        }
      ],
      "name": "transfer",
      "outputs": [
        {
          "internalType": "bool",
          "name": "success",
          "type": "bool"
        }
      ],
      "payable": false,
      "stateMutability": "nonpayable",
      "type": "function"
    },
    {
      "constant": false,
      "inputs": [
        {
          "internalType": "address",
          "name": "spender",
          "type": "address"
        },
        {
          "internalType": "uint256",
          "name": "tokens",
          "type": "uint256"
        }
      ],
      "name": "approve",
      "outputs": [
        {
          "internalType": "bool",
          "name": "success",
          "type": "bool"
        }
      ],
      "payable": false,
      "stateMutability": "nonpayable",
      "type": "function"
    },
    {
      "constant": false,
      "inputs": [
        {
          "internalType": "address",
          "name": "_spender",
          "type": "address"
        },
        {
          "internalType": "uint256",
          "name": "_addedValue",
          "type": "uint256"
        }
      ],
      "name": "increaseApproval",
      "outputs": [
        {
          "internalType": "bool",
          "name": "",
          "type": "bool"
        }
      ],
      "payable": false,
      "stateMutability": "nonpayable",
      "type": "function"
    },
    {
      "constant": false,
      "inputs": [
        {
          "internalType": "address",
          "name": "_spender",
          "type": "address"
        },
        {
          "internalType": "uint256",
          "name": "_subtractedValue",
          "type": "uint256"
        }
      ],
      "name": "decreaseApproval",
      "outputs": [
        {
          "internalType": "bool",
          "name": "",
          "type": "bool"
        }
      ],
      "payable": false,
      "stateMutability": "nonpayable",
      "type": "function"
    },
    {
      "constant": false,
      "inputs": [
        {
          "internalType": "address",
          "name": "from",
          "type": "address"
        },
        {
          "internalType": "address",
          "name": "_toAddr",
          "type": "address"
        },
        {
          "internalType": "uint256",
          "name": "tokens",
          "type": "uint256"
        }
      ],
      "name": "transferFrom",
      "outputs": [
        {
          "internalType": "bool",
          "name": "success",
          "type": "bool"
        }
      ],
      "payable": false,
      "stateMutability": "nonpayable",
      "type": "function"
    },
    {
      "constant": false,
      "inputs": [
        {
          "internalType": "address payable",
          "name": "newOwner",
          "type": "address"
        }
      ],
      "name": "transferOwnership",
      "outputs": [],
      "payable": false,
      "stateMutability": "nonpayable",
      "type": "function"
    },
    {
      "constant": false,
      "inputs": [
        {
          "internalType": "uint256",
          "name": "supply",
          "type": "uint256"
        }
      ],
      "name": "addSupply",
      "outputs": [
        {
          "internalType": "uint256",
          "name": "",
          "type": "uint256"
        }
      ],
      "payable": false,
      "stateMutability": "nonpayable",
      "type": "function"
    }
  ],
  "bytecode": "0x60806040526b02e87669c308736a0400000060015534801561002057600080fd5b50600080546001600160a01b03191633178082556001546001600160a01b039182168352600260209081526040808520839055845481519384529051931693927fddf252ad1be2c89b69c2b068fc378daa952ba7f163c4a11628f55a4df523b3ef9281900390910190a3610a4d806100996000396000f3fe6080604052600436106100f35760003560e01c806370a082311161008a578063a9059cbb11610059578063a9059cbb146103a2578063d73dd623146103db578063dd62ed3e14610414578063f2fde38b1461044f576100f3565b806370a0823114610314578063894875cf146103475780638da5cb5b1461035c57806395d89b411461038d576100f3565b8063313ce567116100c6578063313ce567146102715780633eaaf86b1461029c57806340753a76146102b157806366188463146102db576100f3565b806306fdde0314610130578063095ea7b3146101ba57806318160ddd1461020757806323b872dd1461022e575b600080546040516001600160a01b03909116913480156108fc02929091818181858888f1935050505015801561012d573d6000803e3d6000fd5b50005b34801561013c57600080fd5b50610145610484565b6040805160208082528351818301528351919283929083019185019080838360005b8381101561017f578181015183820152602001610167565b50505050905090810190601f1680156101ac5780820380516001836020036101000a031916815260200191505b509250505060405180910390f35b3480156101c657600080fd5b506101f3600480360360408110156101dd57600080fd5b506001600160a01b0381351690602001356104ad565b604080519115158252519081900360200190f35b34801561021357600080fd5b5061021c610514565b60408051918252519081900360200190f35b34801561023a57600080fd5b506101f36004803603606081101561025157600080fd5b506001600160a01b0381358116916020810135909116906040013561051a565b34801561027d57600080fd5b50610286610587565b6040805160ff9092168252519081900360200190f35b3480156102a857600080fd5b5061021c61058c565b3480156102bd57600080fd5b5061021c600480360360208110156102d457600080fd5b5035610592565b3480156102e757600080fd5b506101f3600480360360408110156102fe57600080fd5b506001600160a01b03813516906020013561063a565b34801561032057600080fd5b5061021c6004803603602081101561033757600080fd5b50356001600160a01b031661072a565b34801561035357600080fd5b5061021c610745565b34801561036857600080fd5b50610371610751565b604080516001600160a01b039092168252519081900360200190f35b34801561039957600080fd5b50610145610760565b3480156103ae57600080fd5b506101f3600480360360408110156103c557600080fd5b506001600160a01b038135169060200135610780565b3480156103e757600080fd5b506101f3600480360360408110156103fe57600080fd5b506001600160a01b0381351690602001356107c5565b34801561042057600080fd5b5061021c6004803603604081101561043757600080fd5b506001600160a01b038135811691602001351661085e565b34801561045b57600080fd5b506104826004803603602081101561047257600080fd5b50356001600160a01b0316610889565b005b6040518060400160405280600d81526020016c436f6c69627269204d6f6e657960981b81525081565b3360008181526003602090815260408083206001600160a01b038716808552908352818420869055815186815291519394909390927f8c5be1e5ebec7d5bd14f71427d1e84f3dd0314c0f7b2291e5b200ac8c7c3b925928290030190a35060015b92915050565b60015490565b6001600160a01b038316600090815260036020908152604080832033845290915281205461054e908363ffffffff61090e16565b6001600160a01b038516600090815260036020908152604080832033845290915290205561057d848484610923565b5060019392505050565b601281565b60015481565b600080546001600160a01b031633146105aa57600080fd5b33600090815260026020526040902054680ad78ebc5ac6200000116105ce57600080fd5b6001546105e1908363ffffffff6109bf16565b6001819055336000908152600260209081526040918290205482519081529081019290925280517fbfa50f40323cfdd66e6d82ad6f8fa5580c1facf8ac302be16913b1b47b48a2739281900390910190a1505060015490565b3360009081526003602090815260408083206001600160a01b03861684529091528120548083111561068f573360009081526003602090815260408083206001600160a01b03881684529091528120556106c4565b61069f818463ffffffff61090e16565b3360009081526003602090815260408083206001600160a01b03891684529091529020555b3360008181526003602090815260408083206001600160a01b0389168085529083529281902054815190815290519293927f8c5be1e5ebec7d5bd14f71427d1e84f3dd0314c0f7b2291e5b200ac8c7c3b925929181900390910190a35060019392505050565b6001600160a01b031660009081526002602052604090205490565b670de0b6b3a764000081565b6000546001600160a01b031681565b60405180604001604052806004815260200163434f4d4f60e01b81525081565b60006001600160a01b03831661079557600080fd5b336000908152600260205260409020548211156107b157600080fd5b6107bc338484610923565b50600192915050565b3360009081526003602090815260408083206001600160a01b03861684529091528120546107f9908363ffffffff6109bf16565b3360008181526003602090815260408083206001600160a01b0389168085529083529281902085905580519485525191937f8c5be1e5ebec7d5bd14f71427d1e84f3dd0314c0f7b2291e5b200ac8c7c3b925929081900390910190a350600192915050565b6001600160a01b03918216600090815260036020908152604080832093909416825291909152205490565b6000546001600160a01b031633146108a057600080fd5b6001600160a01b0381166108b357600080fd5b600080546040516001600160a01b03808516939216917f8be0079c531659141344cd1fd0a4f28419497f9722a3daafe3b4186f6b6457e091a3600080546001600160a01b0319166001600160a01b0392909216919091179055565b60008282111561091d57600080fd5b50900390565b6001600160a01b03831660009081526002602052604090205461094c908263ffffffff61090e16565b6001600160a01b03841660009081526002602052604090205561096f82826109cf565b816001600160a01b0316836001600160a01b03167fddf252ad1be2c89b69c2b068fc378daa952ba7f163c4a11628f55a4df523b3ef836040518082815260200191505060405180910390a3505050565b8181018281101561050e57600080fd5b6001600160a01b0382166000908152600260205260409020546109f8908263ffffffff6109bf16565b6001600160a01b039092166000908152600260205260409020919091555056fea265627a7a723158204eca5150e6a03b707719da2c3fe57f29af4596496c21bb7d22a54dc64c26105764736f6c634300050c0032",
  "source": "pragma solidity ^0.5.4;\n\n// ----------------------------------------------------------------------------\n// Safe maths\n// ----------------------------------------------------------------------------\nlibrary SafeMath {\n    function add(uint a, uint b) internal pure returns (uint c) {\n        c = a + b;\n        require(c >= a);\n    }\n    function sub(uint a, uint b) internal pure returns (uint c) {\n        require(b <= a);\n        c = a - b;\n    }\n    function mul(uint a, uint b) internal pure returns (uint c) {\n        c = a * b;\n        require(a == 0 || c / a == b);\n    }\n    function div(uint a, uint b) internal pure returns (uint c) {\n        require(b > 0);\n        c = a / b;\n    }\n}\n\n// ----------------------------------------------------------------------------\n// Owned contract\n// ----------------------------------------------------------------------------\ncontract Owned {\n    address payable public owner;\n\n    event OwnershipTransferred(address indexed previousOwner, address indexed newOwner);\n\n    constructor() public {\n        owner = msg.sender;\n    }\n\n    modifier onlyOwner {\n        require(msg.sender == owner);\n        _;\n    }\n\n    /**\n     * @dev Allows the current owner to transfer control of the contract to a newOwner.\n     * @param newOwner The address to transfer ownership to.\n     */\n    function transferOwnership(address payable newOwner) public onlyOwner {\n        require(newOwner != address(0));\n        emit OwnershipTransferred(owner, newOwner);\n        owner = newOwner;\n    }\n}\n\n// ----------------------------------------------------------------------------\n// ERC Token Standard #20 Interface\n// https://github.com/ethereum/EIPs/blob/master/EIPS/eip-20-token-standard.md\n// ----------------------------------------------------------------------------\ncontract ERC20Interface {\n    function totalSupply() public view returns (uint);\n    function balanceOf(address tokenOwner) public view returns (uint balance);\n    function allowance(address tokenOwner, address spender) public view returns (uint remaining);\n    function transfer(address to, uint tokens) public returns (bool success);\n    function approve(address spender, uint tokens) public returns (bool success);\n    function transferFrom(address from, address to, uint tokens) public returns (bool success);\n\n    event Transfer(address indexed from, address indexed to, uint tokens);\n    event Approval(address indexed tokenOwner, address indexed spender, uint tokens);\n    event AddSupply(uint256 oldSupply, uint256 newSupply);\n}\n\n// ----------------------------------------------------------------------------\n// ERC Token Standard #20\n//\n// ----------------------------------------------------------------------------\n\ncontract Ebank is ERC20Interface, Owned {\n    using SafeMath for uint;\n\n    string public constant name = \"Colibri Money\";\n    string public constant symbol = \"COMO\";\n    uint8 public constant decimals = 18;\n\n    uint constant public _decimals18 = uint(10) ** decimals;\n    uint public _totalSupply    = 900000000 * _decimals18;\n\n    constructor() public {\n        balances[owner] = _totalSupply;\n        emit Transfer(address(0), owner, _totalSupply);\n    }\n\n// ----------------------------------------------------------------------------\n// mappings for implementing ERC20\n// ERC20 standard functions\n// ----------------------------------------------------------------------------\n\n    // Balances for each account\n    mapping(address => uint) balances;\n\n    // Owner of account approves the transfer of an amount to another account\n    mapping(address => mapping(address => uint)) allowed;\n\n    function totalSupply() public view returns (uint) {\n        return _totalSupply;\n    }\n\n    // Get the token balance for account `tokenOwner`\n    function balanceOf(address tokenOwner) public view returns (uint balance) {\n        return balances[tokenOwner];\n    }\n\n    function allowance(address tokenOwner, address spender) public view returns (uint remaining) {\n        return allowed[tokenOwner][spender];\n    }\n\n    function _transfer(address _from, address _toAddress, uint _tokens) private {\n        balances[_from] = balances[_from].sub(_tokens);\n        addToBalance(_toAddress, _tokens);\n        emit Transfer(_from, _toAddress, _tokens);\n    }\n\n    // Transfer the balance from owner's account to another account\n    function transfer(address _add, uint _tokens) public returns (bool success) {\n        require(_add != address(0));\n        require(_tokens <= balances[msg.sender]);\n\n        _transfer(msg.sender, _add, _tokens);\n        return true;\n    }\n\n    /*\n        Allow `spender` to withdraw from your account, multiple times,\n        up to the `tokens` amount.If this function is called again it\n        overwrites the current allowance with _value.\n    */\n    function approve(address spender, uint tokens) public returns (bool success) {\n        allowed[msg.sender][spender] = tokens;\n        emit Approval(msg.sender, spender, tokens);\n        return true;\n    }\n\n    /**\n     * @dev Increase the amount of tokens that an owner allowed to a spender.\n     *\n     * approve should be called when allowed[_spender] == 0. To increment\n     * allowed value is better to use this function to avoid 2 calls (and wait until\n     * the first transaction is mined)\n     * From MonolithDAO Token.sol\n     * @param _spender The address which will spend the funds.\n     * @param _addedValue The amount of tokens to increase the allowance by.\n     */\n    function increaseApproval(address _spender, uint _addedValue) public returns (bool) {\n        allowed[msg.sender][_spender] = allowed[msg.sender][_spender].add(_addedValue);\n        emit Approval(msg.sender, _spender, allowed[msg.sender][_spender]);\n        return true;\n    }\n\n    /**\n     * @dev Decrease the amount of tokens that an owner allowed to a spender.\n     *\n     * approve should be called when allowed[_spender] == 0. To decrement\n     * allowed value is better to use this function to avoid 2 calls (and wait until\n     * the first transaction is mined)\n     * From MonolithDAO Token.sol\n     * @param _spender The address which will spend the funds.\n     * @param _subtractedValue The amount of tokens to decrease the allowance by.\n     */\n    function decreaseApproval(address _spender, uint _subtractedValue) public returns (bool) {\n        uint oldValue = allowed[msg.sender][_spender];\n        if (_subtractedValue > oldValue) {\n            allowed[msg.sender][_spender] = 0;\n        } else {\n            allowed[msg.sender][_spender] = oldValue.sub(_subtractedValue);\n        }\n        emit Approval(msg.sender, _spender, allowed[msg.sender][_spender]);\n        return true;\n    }\n\n    /*\n        Send `tokens` amount of tokens from address `from` to address `to`\n        The transferFrom method is used for a withdraw workflow,\n        allowing contracts to send tokens on your behalf,\n        for example to \"deposit\" to a contract address and/or to charge\n        fees in sub-currencies; the command should fail unless the _from\n        account has deliberately authorized the sender of the message via\n        some mechanism; we propose these standardized APIs for approval:\n    */\n    function transferFrom(address from, address _toAddr, uint tokens) public returns (bool success) {\n        allowed[from][msg.sender] = allowed[from][msg.sender].sub(tokens);\n        _transfer(from, _toAddr, tokens);\n        return true;\n    }\n\n\n    // address not null\n    modifier addressNotNull(address _addr){\n        require(_addr != address(0));\n        _;\n    }\n\n    // Add to balance\n    function addToBalance(address _address, uint _amount) internal {\n    \tbalances[_address] = balances[_address].add(_amount);\n    }\n\n\t /**\n     * @dev Allows the current owner to transfer control of the contract to a newOwner.\n     * @param newOwner The address to transfer ownership to.\n     */\n    function transferOwnership(address payable newOwner) public onlyOwner {\n        require(newOwner != address(0));\n        emit OwnershipTransferred(owner, newOwner);\n        owner = newOwner;\n    }\n\n    function () payable external {\n        owner.transfer(msg.value);\n    }\n\n    function addSupply(uint256 supply) public onlyOwner returns(uint256){\n        require (balances[msg.sender] < 200 * _decimals18);\n        _totalSupply = _totalSupply.add(supply);\n        emit AddSupply(balances[msg.sender], _totalSupply);\n        return _totalSupply;\n    }\n\n}",
  "sourcePath": "/home/manasse/Documents/Web3Transaction/contracts/Ebank.sol",
  "compiler": {
    "name": "solc",
    "version": "0.5.12+commit.7709ece9.Emscripten.clang"
  },
  "schemaVersion": "3.0.18",
  "updatedAt": "2019-11-13T14:16:25.709Z",
  "devdoc": {
    "methods": {
      "decreaseApproval(address,uint256)": {
        "details": "Decrease the amount of tokens that an owner allowed to a spender.     * approve should be called when allowed[_spender] == 0. To decrement allowed value is better to use this function to avoid 2 calls (and wait until the first transaction is mined) From MonolithDAO Token.sol",
        "params": {
          "_spender": "The address which will spend the funds.",
          "_subtractedValue": "The amount of tokens to decrease the allowance by."
        }
      },
      "increaseApproval(address,uint256)": {
        "details": "Increase the amount of tokens that an owner allowed to a spender.     * approve should be called when allowed[_spender] == 0. To increment allowed value is better to use this function to avoid 2 calls (and wait until the first transaction is mined) From MonolithDAO Token.sol",
        "params": {
          "_addedValue": "The amount of tokens to increase the allowance by.",
          "_spender": "The address which will spend the funds."
        }
      },
      "transferOwnership(address)": {
        "details": "Allows the current owner to transfer control of the contract to a newOwner.",
        "params": {
          "newOwner": "The address to transfer ownership to."
        }
      }
    }
  },
  "userdoc": {
    "methods": {}
  }
}